{
  "_format": "hh-sol-artifact-1",
  "contractName": "Database",
  "sourceName": "contracts/Database.sol",
  "abi": [
    {
      "anonymous": false,
      "inputs": [
        {
          "indexed": false,
          "internalType": "address",
          "name": "useraddr",
          "type": "address"
        },
        {
          "indexed": false,
          "internalType": "address",
          "name": "contactaddr",
          "type": "address"
        }
      ],
      "name": "ContactAdded",
      "type": "event"
    },
    {
      "anonymous": false,
      "inputs": [
        {
          "indexed": false,
          "internalType": "address",
          "name": "useraddr",
          "type": "address"
        },
        {
          "indexed": false,
          "internalType": "address",
          "name": "contactaddr",
          "type": "address"
        }
      ],
      "name": "ContactRemoved",
      "type": "event"
    },
    {
      "anonymous": false,
      "inputs": [
        {
          "indexed": false,
          "internalType": "address",
          "name": "useraddr",
          "type": "address"
        },
        {
          "indexed": false,
          "internalType": "address",
          "name": "fileaddr",
          "type": "address"
        },
        {
          "indexed": false,
          "internalType": "string",
          "name": "name",
          "type": "string"
        },
        {
          "indexed": false,
          "internalType": "string",
          "name": "path",
          "type": "string"
        }
      ],
      "name": "FileAdded",
      "type": "event"
    },
    {
      "anonymous": false,
      "inputs": [
        {
          "indexed": false,
          "internalType": "address",
          "name": "fileaddr",
          "type": "address"
        }
      ],
      "name": "FileDeleted",
      "type": "event"
    },
    {
      "anonymous": false,
      "inputs": [
        {
          "indexed": false,
          "internalType": "address",
          "name": "fileaddr",
          "type": "address"
        },
        {
          "indexed": false,
          "internalType": "address",
          "name": "useraddr",
          "type": "address"
        }
      ],
      "name": "FileShared",
      "type": "event"
    },
    {
      "anonymous": false,
      "inputs": [
        {
          "indexed": false,
          "internalType": "address",
          "name": "fileaddr",
          "type": "address"
        }
      ],
      "name": "FileUnshared",
      "type": "event"
    },
    {
      "anonymous": false,
      "inputs": [
        {
          "indexed": false,
          "internalType": "address",
          "name": "fileaddr",
          "type": "address"
        }
      ],
      "name": "FileUpdated",
      "type": "event"
    },
    {
      "anonymous": false,
      "inputs": [
        {
          "indexed": false,
          "internalType": "address",
          "name": "useraddr",
          "type": "address"
        },
        {
          "indexed": false,
          "internalType": "uint256",
          "name": "id",
          "type": "uint256"
        },
        {
          "indexed": false,
          "internalType": "string",
          "name": "name",
          "type": "string"
        },
        {
          "indexed": false,
          "internalType": "string",
          "name": "email",
          "type": "string"
        }
      ],
      "name": "UserAdded",
      "type": "event"
    },
    {
      "inputs": [
        {
          "internalType": "address",
          "name": "useraddr",
          "type": "address"
        },
        {
          "internalType": "address",
          "name": "contactaddr",
          "type": "address"
        }
      ],
      "name": "addContact",
      "outputs": [
        {
          "internalType": "bool",
          "name": "",
          "type": "bool"
        }
      ],
      "stateMutability": "nonpayable",
      "type": "function"
    },
    {
      "inputs": [
        {
          "internalType": "address",
          "name": "owneraddr",
          "type": "address"
        },
        {
          "internalType": "address",
          "name": "fileaddr",
          "type": "address"
        },
        {
          "internalType": "string",
          "name": "name",
          "type": "string"
        },
        {
          "internalType": "string",
          "name": "path",
          "type": "string"
        },
        {
          "internalType": "string",
          "name": "filestring",
          "type": "string"
        }
      ],
      "name": "addFile",
      "outputs": [
        {
          "internalType": "bool",
          "name": "",
          "type": "bool"
        }
      ],
      "stateMutability": "nonpayable",
      "type": "function"
    },
    {
      "inputs": [
        {
          "internalType": "address",
          "name": "useraddr",
          "type": "address"
        },
        {
          "internalType": "string",
          "name": "name",
          "type": "string"
        },
        {
          "internalType": "string",
          "name": "email",
          "type": "string"
        }
      ],
      "name": "addUser",
      "outputs": [
        {
          "internalType": "bool",
          "name": "",
          "type": "bool"
        }
      ],
      "stateMutability": "nonpayable",
      "type": "function"
    },
    {
      "inputs": [
        {
          "internalType": "address",
          "name": "fileaddr",
          "type": "address"
        }
      ],
      "name": "deleteFile",
      "outputs": [
        {
          "internalType": "bool",
          "name": "",
          "type": "bool"
        }
      ],
      "stateMutability": "nonpayable",
      "type": "function"
    },
    {
      "inputs": [
        {
          "internalType": "string",
          "name": "",
          "type": "string"
        }
      ],
      "name": "emails",
      "outputs": [
        {
          "internalType": "bool",
          "name": "",
          "type": "bool"
        }
      ],
      "stateMutability": "view",
      "type": "function"
    },
    {
      "inputs": [],
      "name": "filecount",
      "outputs": [
        {
          "internalType": "uint256",
          "name": "",
          "type": "uint256"
        }
      ],
      "stateMutability": "view",
      "type": "function"
    },
    {
      "inputs": [
        {
          "internalType": "address",
          "name": "",
          "type": "address"
        }
      ],
      "name": "files",
      "outputs": [
        {
          "internalType": "uint256",
          "name": "id",
          "type": "uint256"
        },
        {
          "internalType": "address",
          "name": "owner",
          "type": "address"
        },
        {
          "internalType": "uint256",
          "name": "ownerkey",
          "type": "uint256"
        },
        {
          "internalType": "string",
          "name": "name",
          "type": "string"
        },
        {
          "internalType": "uint256",
          "name": "size",
          "type": "uint256"
        },
        {
          "internalType": "string",
          "name": "path",
          "type": "string"
        },
        {
          "internalType": "bytes32",
          "name": "crc",
          "type": "bytes32"
        },
        {
          "internalType": "bool",
          "name": "exists",
          "type": "bool"
        }
      ],
      "stateMutability": "view",
      "type": "function"
    },
    {
      "inputs": [
        {
          "internalType": "address",
          "name": "useraddr",
          "type": "address"
        }
      ],
      "name": "getContacts",
      "outputs": [
        {
          "internalType": "address[]",
          "name": "",
          "type": "address[]"
        }
      ],
      "stateMutability": "view",
      "type": "function"
    },
    {
      "inputs": [
        {
          "internalType": "address",
          "name": "fileaddr",
          "type": "address"
        }
      ],
      "name": "getFileusers",
      "outputs": [
        {
          "internalType": "address[]",
          "name": "",
          "type": "address[]"
        }
      ],
      "stateMutability": "view",
      "type": "function"
    },
    {
      "inputs": [
        {
          "internalType": "address",
          "name": "useraddr",
          "type": "address"
        }
      ],
      "name": "getUserfiles",
      "outputs": [
        {
          "internalType": "address[]",
          "name": "",
          "type": "address[]"
        }
      ],
      "stateMutability": "view",
      "type": "function"
    },
    {
      "inputs": [
        {
          "internalType": "address",
          "name": "fileaddr",
          "type": "address"
        },
        {
          "internalType": "string",
          "name": "filestring",
          "type": "string"
        }
      ],
      "name": "matchFile",
      "outputs": [
        {
          "internalType": "bool",
          "name": "",
          "type": "bool"
        }
      ],
      "stateMutability": "view",
      "type": "function"
    },
    {
      "inputs": [],
      "name": "maxfileid",
      "outputs": [
        {
          "internalType": "uint256",
          "name": "",
          "type": "uint256"
        }
      ],
      "stateMutability": "view",
      "type": "function"
    },
    {
      "inputs": [],
      "name": "maxuserid",
      "outputs": [
        {
          "internalType": "uint256",
          "name": "",
          "type": "uint256"
        }
      ],
      "stateMutability": "view",
      "type": "function"
    },
    {
      "inputs": [
        {
          "internalType": "string",
          "name": "",
          "type": "string"
        }
      ],
      "name": "paths",
      "outputs": [
        {
          "internalType": "bool",
          "name": "",
          "type": "bool"
        }
      ],
      "stateMutability": "view",
      "type": "function"
    },
    {
      "inputs": [
        {
          "internalType": "address",
          "name": "useraddr",
          "type": "address"
        },
        {
          "internalType": "address",
          "name": "contactaddr",
          "type": "address"
        }
      ],
      "name": "removeContact",
      "outputs": [
        {
          "internalType": "bool",
          "name": "",
          "type": "bool"
        }
      ],
      "stateMutability": "nonpayable",
      "type": "function"
    },
    {
      "inputs": [
        {
          "internalType": "address",
          "name": "fileaddr",
          "type": "address"
        },
        {
          "internalType": "address",
          "name": "useraddr",
          "type": "address"
        }
      ],
      "name": "shareFile",
      "outputs": [
        {
          "internalType": "bool",
          "name": "",
          "type": "bool"
        }
      ],
      "stateMutability": "nonpayable",
      "type": "function"
    },
    {
      "inputs": [
        {
          "internalType": "address",
          "name": "fileaddr",
          "type": "address"
        },
        {
          "internalType": "address",
          "name": "useraddr",
          "type": "address"
        }
      ],
      "name": "unshareFile",
      "outputs": [
        {
          "internalType": "bool",
          "name": "",
          "type": "bool"
        }
      ],
      "stateMutability": "nonpayable",
      "type": "function"
    },
    {
      "inputs": [
        {
          "internalType": "address",
          "name": "fileaddr",
          "type": "address"
        }
      ],
      "name": "unshareFile",
      "outputs": [
        {
          "internalType": "bool",
          "name": "",
          "type": "bool"
        }
      ],
      "stateMutability": "nonpayable",
      "type": "function"
    },
    {
      "inputs": [
        {
          "internalType": "address",
          "name": "fileaddr",
          "type": "address"
        },
        {
          "internalType": "string",
          "name": "filestring",
          "type": "string"
        }
      ],
      "name": "updateFile",
      "outputs": [
        {
          "internalType": "bool",
          "name": "",
          "type": "bool"
        }
      ],
      "stateMutability": "nonpayable",
      "type": "function"
    },
    {
      "inputs": [],
      "name": "usercount",
      "outputs": [
        {
          "internalType": "uint256",
          "name": "",
          "type": "uint256"
        }
      ],
      "stateMutability": "view",
      "type": "function"
    },
    {
      "inputs": [
        {
          "internalType": "address",
          "name": "",
          "type": "address"
        }
      ],
      "name": "users",
      "outputs": [
        {
          "internalType": "uint256",
          "name": "id",
          "type": "uint256"
        },
        {
          "internalType": "string",
          "name": "name",
          "type": "string"
        },
        {
          "internalType": "string",
          "name": "email",
          "type": "string"
        },
        {
          "internalType": "bool",
          "name": "exists",
          "type": "bool"
        }
      ],
      "stateMutability": "view",
      "type": "function"
    }
  ],
  "bytecode": "0x60806040526000600255600060035534801561001a57600080fd5b5061411c8061002a6000396000f3fe608060405234801561001057600080fd5b50600436106101375760003560e01c8063842a1584116100b8578063c9639fd61161007c578063c9639fd6146103e0578063d34cb33014610410578063d5b0d30d1461042e578063d7554a681461045e578063ded19c891461048e578063e2c427db146104be57610137565b8063842a1584146102ff578063a87430ba1461032f578063a976d28514610362578063bb18a65b14610392578063c4b3199c146103c257610137565b806327080fbb116100ff57806327080fbb1461020857806337858b0c1461023857806339c637df146102685780635de8c1161461029f5780638261dcc8146102cf57610137565b80630a3f1cc71461013c5780630f322c1e1461015a5780630ffba5d6146101785780631e3d8417146101a85780632101772a146101d8575b600080fd5b6101446104ee565b60405161015191906133fd565b60405180910390f35b6101626104f4565b60405161016f91906133fd565b60405180910390f35b610192600480360381019061018d91906135d0565b6104fa565b60405161019f9190613647565b60405180910390f35b6101c260048036038101906101bd9190613662565b6106df565b6040516101cf9190613647565b60405180910390f35b6101f260048036038101906101ed91906135d0565b610ac2565b6040516101ff9190613647565b60405180910390f35b610222600480360381019061021d919061368f565b610c1e565b60405161022f9190613647565b60405180910390f35b610252600480360381019061024d919061368f565b610f05565b60405161025f9190613647565b60405180910390f35b610282600480360381019061027d9190613662565b61129c565b60405161029698979695949392919061377f565b60405180910390f35b6102b960048036038101906102b4919061380b565b611421565b6040516102c69190613647565b60405180910390f35b6102e960048036038101906102e49190613662565b611457565b6040516102f69190613912565b60405180910390f35b61031960048036038101906103149190613934565b61162d565b6040516103269190613647565b60405180910390f35b61034960048036038101906103449190613662565b611bf5565b6040516103599493929190613a03565b60405180910390f35b61037c6004803603810190610377919061368f565b611d42565b6040516103899190613647565b60405180910390f35b6103ac60048036038101906103a79190613662565b6122cf565b6040516103b99190613912565b60405180910390f35b6103ca6124a5565b6040516103d791906133fd565b60405180910390f35b6103fa60048036038101906103f5919061368f565b6124ab565b6040516104079190613647565b60405180910390f35b610418612745565b60405161042591906133fd565b60405180910390f35b6104486004803603810190610443919061380b565b61274b565b6040516104559190613647565b60405180910390f35b61047860048036038101906104739190613a56565b612781565b6040516104859190613647565b60405180910390f35b6104a860048036038101906104a39190613662565b612adb565b6040516104b59190613647565b60405180910390f35b6104d860048036038101906104d39190613662565b612cc3565b6040516104e59190613912565b60405180910390f35b60025481565b60005481565b600082600560008273ffffffffffffffffffffffffffffffffffffffff1673ffffffffffffffffffffffffffffffffffffffff16815260200190815260200160002060080160009054906101000a900460ff1680156105c257506007600560008373ffffffffffffffffffffffffffffffffffffffff1673ffffffffffffffffffffffffffffffffffffffff1681526020019081526020016000206005016040516105a59190613be1565b908152602001604051809103902060009054906101000a900460ff165b610601576040517f08c379a00000000000000000000000000000000000000000000000000000000081526004016105f890613c44565b60405180910390fd5b60008390508051600560008773ffffffffffffffffffffffffffffffffffffffff1673ffffffffffffffffffffffffffffffffffffffff168152602001908152602001600020600401819055508080519060200120600560008773ffffffffffffffffffffffffffffffffffffffff1673ffffffffffffffffffffffffffffffffffffffff168152602001908152602001600020600601819055507fc2b72a0fe8c458577d2c9ac0f97d01cbb043a6faae7c6b7eeda2a4812575027b856040516106cb9190613c64565b60405180910390a160019250505092915050565b600081600560008273ffffffffffffffffffffffffffffffffffffffff1673ffffffffffffffffffffffffffffffffffffffff16815260200190815260200160002060080160009054906101000a900460ff1680156107a757506007600560008373ffffffffffffffffffffffffffffffffffffffff1673ffffffffffffffffffffffffffffffffffffffff16815260200190815260200160002060050160405161078a9190613be1565b908152602001604051809103902060009054906101000a900460ff165b6107e6576040517f08c379a00000000000000000000000000000000000000000000000000000000081526004016107dd90613c44565b60405180910390fd5b6000600560008573ffffffffffffffffffffffffffffffffffffffff1673ffffffffffffffffffffffffffffffffffffffff16815260200190815260200160002060010160009054906101000a900473ffffffffffffffffffffffffffffffffffffffff1690506000600560008673ffffffffffffffffffffffffffffffffffffffff1673ffffffffffffffffffffffffffffffffffffffff16815260200190815260200160002060020154905060006108e1600460008573ffffffffffffffffffffffffffffffffffffffff1673ffffffffffffffffffffffffffffffffffffffff16815260200190815260200160002060030183612e99565b905081600560008373ffffffffffffffffffffffffffffffffffffffff1673ffffffffffffffffffffffffffffffffffffffff168152602001908152602001600020600201819055506007600560008873ffffffffffffffffffffffffffffffffffffffff1673ffffffffffffffffffffffffffffffffffffffff16815260200190815260200160002060050160405161097b9190613be1565b908152602001604051809103902060006101000a81549060ff0219169055600560008773ffffffffffffffffffffffffffffffffffffffff1673ffffffffffffffffffffffffffffffffffffffff1681526020019081526020016000206000808201600090556001820160006101000a81549073ffffffffffffffffffffffffffffffffffffffff02191690556002820160009055600382016000610a209190613256565b6004820160009055600582016000610a389190613256565b6006820160009055600782016000610a509190613296565b6008820160006101000a81549060ff0219169055505060016000815480929190610a7990613cae565b91905055507ff06fa9ed1d9e02f00255c6f024c16c8dd03d5be11acac08323aa9d01073c8b5e86604051610aad9190613c64565b60405180910390a16001945050505050919050565b600082600560008273ffffffffffffffffffffffffffffffffffffffff1673ffffffffffffffffffffffffffffffffffffffff16815260200190815260200160002060080160009054906101000a900460ff168015610b8a57506007600560008373ffffffffffffffffffffffffffffffffffffffff1673ffffffffffffffffffffffffffffffffffffffff168152602001908152602001600020600501604051610b6d9190613be1565b908152602001604051809103902060009054906101000a900460ff165b610bc9576040517f08c379a0000000000000000000000000000000000000000000000000000000008152600401610bc090613c44565b60405180910390fd5b600560008573ffffffffffffffffffffffffffffffffffffffff1673ffffffffffffffffffffffffffffffffffffffff1681526020019081526020016000206006015483805190602001201491505092915050565b600082600460008273ffffffffffffffffffffffffffffffffffffffff1673ffffffffffffffffffffffffffffffffffffffff16815260200190815260200160002060050160009054906101000a900460ff168015610ce657506006600460008373ffffffffffffffffffffffffffffffffffffffff1673ffffffffffffffffffffffffffffffffffffffff168152602001908152602001600020600201604051610cc99190613be1565b908152602001604051809103902060009054906101000a900460ff165b610d25576040517f08c379a0000000000000000000000000000000000000000000000000000000008152600401610d1c90613d24565b60405180910390fd5b82600460008273ffffffffffffffffffffffffffffffffffffffff1673ffffffffffffffffffffffffffffffffffffffff16815260200190815260200160002060050160009054906101000a900460ff168015610deb57506006600460008373ffffffffffffffffffffffffffffffffffffffff1673ffffffffffffffffffffffffffffffffffffffff168152602001908152602001600020600201604051610dce9190613be1565b908152602001604051809103902060009054906101000a900460ff165b610e2a576040517f08c379a0000000000000000000000000000000000000000000000000000000008152600401610e2190613d24565b60405180910390fd5b610e75600460008773ffffffffffffffffffffffffffffffffffffffff1673ffffffffffffffffffffffffffffffffffffffff1681526020019081526020016000206004018561301a565b610ec0600460008673ffffffffffffffffffffffffffffffffffffffff1673ffffffffffffffffffffffffffffffffffffffff1681526020019081526020016000206004018661301a565b7f0c65bfcfc9323f4e0510884c021b5a6dbb865ff94299eb9a8f89b36412a7d9988585604051610ef1929190613d44565b60405180910390a160019250505092915050565b600082600460008273ffffffffffffffffffffffffffffffffffffffff1673ffffffffffffffffffffffffffffffffffffffff16815260200190815260200160002060050160009054906101000a900460ff168015610fcd57506006600460008373ffffffffffffffffffffffffffffffffffffffff1673ffffffffffffffffffffffffffffffffffffffff168152602001908152602001600020600201604051610fb09190613be1565b908152602001604051809103902060009054906101000a900460ff165b61100c576040517f08c379a000000000000000000000000000000000000000000000000000000000815260040161100390613d24565b60405180910390fd5b82600460008273ffffffffffffffffffffffffffffffffffffffff1673ffffffffffffffffffffffffffffffffffffffff16815260200190815260200160002060050160009054906101000a900460ff1680156110d257506006600460008373ffffffffffffffffffffffffffffffffffffffff1673ffffffffffffffffffffffffffffffffffffffff1681526020019081526020016000206002016040516110b59190613be1565b908152602001604051809103902060009054906101000a900460ff165b611111576040517f08c379a000000000000000000000000000000000000000000000000000000000815260040161110890613d24565b60405180910390fd5b600460008673ffffffffffffffffffffffffffffffffffffffff1673ffffffffffffffffffffffffffffffffffffffff168152602001908152602001600020600401849080600181540180825580915050600190039060005260206000200160009091909190916101000a81548173ffffffffffffffffffffffffffffffffffffffff021916908373ffffffffffffffffffffffffffffffffffffffff160217905550600460008573ffffffffffffffffffffffffffffffffffffffff1673ffffffffffffffffffffffffffffffffffffffff168152602001908152602001600020600401859080600181540180825580915050600190039060005260206000200160009091909190916101000a81548173ffffffffffffffffffffffffffffffffffffffff021916908373ffffffffffffffffffffffffffffffffffffffff1602179055507f991da500dc9f910ce2a64c3d13783d3f75d912d123ae2d8334ad0a817c91f23b8585604051611288929190613d44565b60405180910390a160019250505092915050565b60056020528060005260406000206000915090508060000154908060010160009054906101000a900473ffffffffffffffffffffffffffffffffffffffff16908060020154908060030180546112f190613b10565b80601f016020809104026020016040519081016040528092919081815260200182805461131d90613b10565b801561136a5780601f1061133f5761010080835404028352916020019161136a565b820191906000526020600020905b81548152906001019060200180831161134d57829003601f168201915b50505050509080600401549080600501805461138590613b10565b80601f01602080910402602001604051908101604052809291908181526020018280546113b190613b10565b80156113fe5780601f106113d3576101008083540402835291602001916113fe565b820191906000526020600020905b8154815290600101906020018083116113e157829003601f168201915b5050505050908060060154908060080160009054906101000a900460ff16905088565b6007818051602081018201805184825260208301602085012081835280955050505050506000915054906101000a900460ff1681565b606081600460008273ffffffffffffffffffffffffffffffffffffffff1673ffffffffffffffffffffffffffffffffffffffff16815260200190815260200160002060050160009054906101000a900460ff16801561151f57506006600460008373ffffffffffffffffffffffffffffffffffffffff1673ffffffffffffffffffffffffffffffffffffffff1681526020019081526020016000206002016040516115029190613be1565b908152602001604051809103902060009054906101000a900460ff165b61155e576040517f08c379a000000000000000000000000000000000000000000000000000000000815260040161155590613d24565b60405180910390fd5b600460008473ffffffffffffffffffffffffffffffffffffffff1673ffffffffffffffffffffffffffffffffffffffff16815260200190815260200160002060030180548060200260200160405190810160405280929190818152602001828054801561162057602002820191906000526020600020905b8160009054906101000a900473ffffffffffffffffffffffffffffffffffffffff1673ffffffffffffffffffffffffffffffffffffffff16815260200190600101908083116115d6575b5050505050915050919050565b600085600460008273ffffffffffffffffffffffffffffffffffffffff1673ffffffffffffffffffffffffffffffffffffffff16815260200190815260200160002060050160009054906101000a900460ff1680156116f557506006600460008373ffffffffffffffffffffffffffffffffffffffff1673ffffffffffffffffffffffffffffffffffffffff1681526020019081526020016000206002016040516116d89190613be1565b908152602001604051809103902060009054906101000a900460ff165b611734576040517f08c379a000000000000000000000000000000000000000000000000000000000815260040161172b90613d24565b60405180910390fd5b85600560008273ffffffffffffffffffffffffffffffffffffffff1673ffffffffffffffffffffffffffffffffffffffff16815260200190815260200160002060080160009054906101000a900460ff161580156117fc57506007600560008373ffffffffffffffffffffffffffffffffffffffff1673ffffffffffffffffffffffffffffffffffffffff1681526020019081526020016000206005016040516117de9190613be1565b908152602001604051809103902060009054906101000a900460ff16155b61183b576040517f08c379a000000000000000000000000000000000000000000000000000000000815260040161183290613db9565b60405180910390fd5b60008490506040518061012001604052806003600081548092919061185f90613dd9565b9190505581526020018a73ffffffffffffffffffffffffffffffffffffffff168152602001600081526020018881526020018251815260200187815260200182805190602001208152602001600067ffffffffffffffff8111156118c6576118c56134a5565b5b6040519080825280602002602001820160405280156118f45781602001602082028036833780820191505090505b50815260200160011515815250600560008a73ffffffffffffffffffffffffffffffffffffffff1673ffffffffffffffffffffffffffffffffffffffff1681526020019081526020016000206000820151816000015560208201518160010160006101000a81548173ffffffffffffffffffffffffffffffffffffffff021916908373ffffffffffffffffffffffffffffffffffffffff1602179055506040820151816002015560608201518160030190805190602001906119b79291906132b7565b506080820151816004015560a08201518160050190805190602001906119de9291906132b7565b5060c0820151816006015560e0820151816007019080519060200190611a0592919061333d565b506101008201518160080160006101000a81548160ff021916908315150217905550905050600460008a73ffffffffffffffffffffffffffffffffffffffff1673ffffffffffffffffffffffffffffffffffffffff16815260200190815260200160002060030180549050600560008a73ffffffffffffffffffffffffffffffffffffffff1673ffffffffffffffffffffffffffffffffffffffff16815260200190815260200160002060020181905550600460008a73ffffffffffffffffffffffffffffffffffffffff1673ffffffffffffffffffffffffffffffffffffffff168152602001908152602001600020600301889080600181540180825580915050600190039060005260206000200160009091909190916101000a81548173ffffffffffffffffffffffffffffffffffffffff021916908373ffffffffffffffffffffffffffffffffffffffff1602179055506001600787604051611b6b9190613e53565b908152602001604051809103902060006101000a81548160ff02191690831515021790555060016000815480929190611ba390613dd9565b91905055507fe0f76fb99d0fdcc765fe6a79952945f024346ab3418e7d8cc9eed19185d31d4c89898989604051611bdd9493929190613e6a565b60405180910390a16001935050505095945050505050565b6004602052806000526040600020600091509050806000015490806001018054611c1e90613b10565b80601f0160208091040260200160405190810160405280929190818152602001828054611c4a90613b10565b8015611c975780601f10611c6c57610100808354040283529160200191611c97565b820191906000526020600020905b815481529060010190602001808311611c7a57829003601f168201915b505050505090806002018054611cac90613b10565b80601f0160208091040260200160405190810160405280929190818152602001828054611cd890613b10565b8015611d255780601f10611cfa57610100808354040283529160200191611d25565b820191906000526020600020905b815481529060010190602001808311611d0857829003601f168201915b5050505050908060050160009054906101000a900460ff16905084565b600082600560008273ffffffffffffffffffffffffffffffffffffffff1673ffffffffffffffffffffffffffffffffffffffff16815260200190815260200160002060080160009054906101000a900460ff168015611e0a57506007600560008373ffffffffffffffffffffffffffffffffffffffff1673ffffffffffffffffffffffffffffffffffffffff168152602001908152602001600020600501604051611ded9190613be1565b908152602001604051809103902060009054906101000a900460ff165b611e49576040517f08c379a0000000000000000000000000000000000000000000000000000000008152600401611e4090613c44565b60405180910390fd5b82600460008273ffffffffffffffffffffffffffffffffffffffff1673ffffffffffffffffffffffffffffffffffffffff16815260200190815260200160002060050160009054906101000a900460ff168015611f0f57506006600460008373ffffffffffffffffffffffffffffffffffffffff1673ffffffffffffffffffffffffffffffffffffffff168152602001908152602001600020600201604051611ef29190613be1565b908152602001604051809103902060009054906101000a900460ff165b611f4e576040517f08c379a0000000000000000000000000000000000000000000000000000000008152600401611f4590613d24565b60405180910390fd5b8484611f9b600560008473ffffffffffffffffffffffffffffffffffffffff1673ffffffffffffffffffffffffffffffffffffffff168152602001908152602001600020600701826131a8565b15611fdb576040517f08c379a0000000000000000000000000000000000000000000000000000000008152600401611fd290613f09565b60405180910390fd5b600560008873ffffffffffffffffffffffffffffffffffffffff1673ffffffffffffffffffffffffffffffffffffffff168152602001908152602001600020600701869080600181540180825580915050600190039060005260206000200160009091909190916101000a81548173ffffffffffffffffffffffffffffffffffffffff021916908373ffffffffffffffffffffffffffffffffffffffff16021790555060046000600560008a73ffffffffffffffffffffffffffffffffffffffff1673ffffffffffffffffffffffffffffffffffffffff16815260200190815260200160002060010160009054906101000a900473ffffffffffffffffffffffffffffffffffffffff1673ffffffffffffffffffffffffffffffffffffffff1673ffffffffffffffffffffffffffffffffffffffff168152602001908152602001600020600401869080600181540180825580915050600190039060005260206000200160009091909190916101000a81548173ffffffffffffffffffffffffffffffffffffffff021916908373ffffffffffffffffffffffffffffffffffffffff160217905550600460008773ffffffffffffffffffffffffffffffffffffffff1673ffffffffffffffffffffffffffffffffffffffff168152602001908152602001600020600401600560008973ffffffffffffffffffffffffffffffffffffffff1673ffffffffffffffffffffffffffffffffffffffff16815260200190815260200160002060010160009054906101000a900473ffffffffffffffffffffffffffffffffffffffff169080600181540180825580915050600190039060005260206000200160009091909190916101000a81548173ffffffffffffffffffffffffffffffffffffffff021916908373ffffffffffffffffffffffffffffffffffffffff1602179055507f1738ec08ed96254f3c7c830338d8c097d9833f3543ad095a528b18486c6962dd87876040516122b9929190613d44565b60405180910390a1600194505050505092915050565b606081600560008273ffffffffffffffffffffffffffffffffffffffff1673ffffffffffffffffffffffffffffffffffffffff16815260200190815260200160002060080160009054906101000a900460ff16801561239757506007600560008373ffffffffffffffffffffffffffffffffffffffff1673ffffffffffffffffffffffffffffffffffffffff16815260200190815260200160002060050160405161237a9190613be1565b908152602001604051809103902060009054906101000a900460ff165b6123d6576040517f08c379a00000000000000000000000000000000000000000000000000000000081526004016123cd90613c44565b60405180910390fd5b600560008473ffffffffffffffffffffffffffffffffffffffff1673ffffffffffffffffffffffffffffffffffffffff16815260200190815260200160002060070180548060200260200160405190810160405280929190818152602001828054801561249857602002820191906000526020600020905b8160009054906101000a900473ffffffffffffffffffffffffffffffffffffffff1673ffffffffffffffffffffffffffffffffffffffff168152602001906001019080831161244e575b5050505050915050919050565b60015481565b600082600560008273ffffffffffffffffffffffffffffffffffffffff1673ffffffffffffffffffffffffffffffffffffffff16815260200190815260200160002060080160009054906101000a900460ff16801561257357506007600560008373ffffffffffffffffffffffffffffffffffffffff1673ffffffffffffffffffffffffffffffffffffffff1681526020019081526020016000206005016040516125569190613be1565b908152602001604051809103902060009054906101000a900460ff165b6125b2576040517f08c379a00000000000000000000000000000000000000000000000000000000081526004016125a990613c44565b60405180910390fd5b82600460008273ffffffffffffffffffffffffffffffffffffffff1673ffffffffffffffffffffffffffffffffffffffff16815260200190815260200160002060050160009054906101000a900460ff16801561267857506006600460008373ffffffffffffffffffffffffffffffffffffffff1673ffffffffffffffffffffffffffffffffffffffff16815260200190815260200160002060020160405161265b9190613be1565b908152602001604051809103902060009054906101000a900460ff165b6126b7576040517f08c379a00000000000000000000000000000000000000000000000000000000081526004016126ae90613d24565b60405180910390fd5b612702600560008773ffffffffffffffffffffffffffffffffffffffff1673ffffffffffffffffffffffffffffffffffffffff1681526020019081526020016000206007018561301a565b7f071c0e123411ae2f5117440a27db2f77a0817b8243c5338f63ef8a646cbbbaea856040516127319190613c64565b60405180910390a160019250505092915050565b60035481565b6006818051602081018201805184825260208301602085012081835280955050505050506000915054906101000a900460ff1681565b600083600460008273ffffffffffffffffffffffffffffffffffffffff1673ffffffffffffffffffffffffffffffffffffffff16815260200190815260200160002060050160009054906101000a900460ff1615801561284b57506006600460008373ffffffffffffffffffffffffffffffffffffffff1673ffffffffffffffffffffffffffffffffffffffff16815260200190815260200160002060020160405161282d9190613be1565b908152602001604051809103902060009054906101000a900460ff16155b61288a576040517f08c379a000000000000000000000000000000000000000000000000000000000815260040161288190613f75565b60405180910390fd5b6040518060c00160405280600260008154809291906128a890613dd9565b919050558152602001858152602001848152602001600067ffffffffffffffff8111156128d8576128d76134a5565b5b6040519080825280602002602001820160405280156129065781602001602082028036833780820191505090505b508152602001600067ffffffffffffffff811115612927576129266134a5565b5b6040519080825280602002602001820160405280156129555781602001602082028036833780820191505090505b50815260200160011515815250600460008773ffffffffffffffffffffffffffffffffffffffff1673ffffffffffffffffffffffffffffffffffffffff1681526020019081526020016000206000820151816000015560208201518160010190805190602001906129c79291906132b7565b5060408201518160020190805190602001906129e49291906132b7565b506060820151816003019080519060200190612a0192919061333d565b506080820151816004019080519060200190612a1e92919061333d565b5060a08201518160050160006101000a81548160ff0219169083151502179055509050506001600684604051612a549190613e53565b908152602001604051809103902060006101000a81548160ff021916908315150217905550600080815480929190612a8b90613dd9565b91905055507fe42b7e5ce4f4d261f8411f66412b019fbff329671721a467c933e254cfe79133856002548686604051612ac79493929190613f95565b60405180910390a160019150509392505050565b600081600560008273ffffffffffffffffffffffffffffffffffffffff1673ffffffffffffffffffffffffffffffffffffffff16815260200190815260200160002060080160009054906101000a900460ff168015612ba357506007600560008373ffffffffffffffffffffffffffffffffffffffff1673ffffffffffffffffffffffffffffffffffffffff168152602001908152602001600020600501604051612b869190613be1565b908152602001604051809103902060009054906101000a900460ff165b612be2576040517f08c379a0000000000000000000000000000000000000000000000000000000008152600401612bd990613c44565b60405180910390fd5b600067ffffffffffffffff811115612bfd57612bfc6134a5565b5b604051908082528060200260200182016040528015612c2b5781602001602082028036833780820191505090505b50600560008573ffffffffffffffffffffffffffffffffffffffff1673ffffffffffffffffffffffffffffffffffffffff1681526020019081526020016000206007019080519060200190612c8192919061333d565b507f071c0e123411ae2f5117440a27db2f77a0817b8243c5338f63ef8a646cbbbaea83604051612cb19190613c64565b60405180910390a16001915050919050565b606081600460008273ffffffffffffffffffffffffffffffffffffffff1673ffffffffffffffffffffffffffffffffffffffff16815260200190815260200160002060050160009054906101000a900460ff168015612d8b57506006600460008373ffffffffffffffffffffffffffffffffffffffff1673ffffffffffffffffffffffffffffffffffffffff168152602001908152602001600020600201604051612d6e9190613be1565b908152602001604051809103902060009054906101000a900460ff165b612dca576040517f08c379a0000000000000000000000000000000000000000000000000000000008152600401612dc190613d24565b60405180910390fd5b600460008473ffffffffffffffffffffffffffffffffffffffff1673ffffffffffffffffffffffffffffffffffffffff168152602001908152602001600020600401805480602002602001604051908101604052809291908181526020018280548015612e8c57602002820191906000526020600020905b8160009054906101000a900473ffffffffffffffffffffffffffffffffffffffff1673ffffffffffffffffffffffffffffffffffffffff1681526020019060010190808311612e42575b5050505050915050919050565b6000828281805490508110612ee3576040517f08c379a0000000000000000000000000000000000000000000000000000000008152600401612eda90614034565b60405180910390fd5b8460018680549050612ef59190614054565b81548110612f0657612f05614088565b5b9060005260206000200160009054906101000a900473ffffffffffffffffffffffffffffffffffffffff16858581548110612f4457612f43614088565b5b9060005260206000200160006101000a81548173ffffffffffffffffffffffffffffffffffffffff021916908373ffffffffffffffffffffffffffffffffffffffff16021790555084805480612f9d57612f9c6140b7565b5b6001900381819060005260206000200160006101000a81549073ffffffffffffffffffffffffffffffffffffffff02191690559055848481548110612fe557612fe4614088565b5b9060005260206000200160009054906101000a900473ffffffffffffffffffffffffffffffffffffffff169250505092915050565b60005b82805490508110156131a2578173ffffffffffffffffffffffffffffffffffffffff1683828154811061305357613052614088565b5b9060005260206000200160009054906101000a900473ffffffffffffffffffffffffffffffffffffffff1673ffffffffffffffffffffffffffffffffffffffff16141561318f5782600184805490506130ac9190614054565b815481106130bd576130bc614088565b5b9060005260206000200160009054906101000a900473ffffffffffffffffffffffffffffffffffffffff168382815481106130fb576130fa614088565b5b9060005260206000200160006101000a81548173ffffffffffffffffffffffffffffffffffffffff021916908373ffffffffffffffffffffffffffffffffffffffff16021790555082805480613154576131536140b7565b5b6001900381819060005260206000200160006101000a81549073ffffffffffffffffffffffffffffffffffffffff02191690559055506131a4565b808061319a90613dd9565b91505061301d565b505b5050565b600080600090505b838054905081101561324a578273ffffffffffffffffffffffffffffffffffffffff168482815481106131e6576131e5614088565b5b9060005260206000200160009054906101000a900473ffffffffffffffffffffffffffffffffffffffff1673ffffffffffffffffffffffffffffffffffffffff161415613237576001915050613250565b808061324290613dd9565b9150506131b0565b50600090505b92915050565b50805461326290613b10565b6000825580601f106132745750613293565b601f01602090049060005260206000209081019061329291906133c7565b5b50565b50805460008255906000526020600020908101906132b491906133c7565b50565b8280546132c390613b10565b90600052602060002090601f0160209004810192826132e5576000855561332c565b82601f106132fe57805160ff191683800117855561332c565b8280016001018555821561332c579182015b8281111561332b578251825591602001919060010190613310565b5b50905061333991906133c7565b5090565b8280548282559060005260206000209081019282156133b6579160200282015b828111156133b55782518260006101000a81548173ffffffffffffffffffffffffffffffffffffffff021916908373ffffffffffffffffffffffffffffffffffffffff1602179055509160200191906001019061335d565b5b5090506133c391906133c7565b5090565b5b808211156133e05760008160009055506001016133c8565b5090565b6000819050919050565b6133f7816133e4565b82525050565b600060208201905061341260008301846133ee565b92915050565b6000604051905090565b600080fd5b600080fd5b600073ffffffffffffffffffffffffffffffffffffffff82169050919050565b60006134578261342c565b9050919050565b6134678161344c565b811461347257600080fd5b50565b6000813590506134848161345e565b92915050565b600080fd5b600080fd5b6000601f19601f8301169050919050565b7f4e487b7100000000000000000000000000000000000000000000000000000000600052604160045260246000fd5b6134dd82613494565b810181811067ffffffffffffffff821117156134fc576134fb6134a5565b5b80604052505050565b600061350f613418565b905061351b82826134d4565b919050565b600067ffffffffffffffff82111561353b5761353a6134a5565b5b61354482613494565b9050602081019050919050565b82818337600083830152505050565b600061357361356e84613520565b613505565b90508281526020810184848401111561358f5761358e61348f565b5b61359a848285613551565b509392505050565b600082601f8301126135b7576135b661348a565b5b81356135c7848260208601613560565b91505092915050565b600080604083850312156135e7576135e6613422565b5b60006135f585828601613475565b925050602083013567ffffffffffffffff81111561361657613615613427565b5b613622858286016135a2565b9150509250929050565b60008115159050919050565b6136418161362c565b82525050565b600060208201905061365c6000830184613638565b92915050565b60006020828403121561367857613677613422565b5b600061368684828501613475565b91505092915050565b600080604083850312156136a6576136a5613422565b5b60006136b485828601613475565b92505060206136c585828601613475565b9150509250929050565b6136d88161344c565b82525050565b600081519050919050565b600082825260208201905092915050565b60005b838110156137185780820151818401526020810190506136fd565b83811115613727576000848401525b50505050565b6000613738826136de565b61374281856136e9565b93506137528185602086016136fa565b61375b81613494565b840191505092915050565b6000819050919050565b61377981613766565b82525050565b600061010082019050613795600083018b6133ee565b6137a2602083018a6136cf565b6137af60408301896133ee565b81810360608301526137c1818861372d565b90506137d060808301876133ee565b81810360a08301526137e2818661372d565b90506137f160c0830185613770565b6137fe60e0830184613638565b9998505050505050505050565b60006020828403121561382157613820613422565b5b600082013567ffffffffffffffff81111561383f5761383e613427565b5b61384b848285016135a2565b91505092915050565b600081519050919050565b600082825260208201905092915050565b6000819050602082019050919050565b6138898161344c565b82525050565b600061389b8383613880565b60208301905092915050565b6000602082019050919050565b60006138bf82613854565b6138c9818561385f565b93506138d483613870565b8060005b838110156139055781516138ec888261388f565b97506138f7836138a7565b9250506001810190506138d8565b5085935050505092915050565b6000602082019050818103600083015261392c81846138b4565b905092915050565b600080600080600060a086880312156139505761394f613422565b5b600061395e88828901613475565b955050602061396f88828901613475565b945050604086013567ffffffffffffffff8111156139905761398f613427565b5b61399c888289016135a2565b935050606086013567ffffffffffffffff8111156139bd576139bc613427565b5b6139c9888289016135a2565b925050608086013567ffffffffffffffff8111156139ea576139e9613427565b5b6139f6888289016135a2565b9150509295509295909350565b6000608082019050613a1860008301876133ee565b8181036020830152613a2a818661372d565b90508181036040830152613a3e818561372d565b9050613a4d6060830184613638565b95945050505050565b600080600060608486031215613a6f57613a6e613422565b5b6000613a7d86828701613475565b935050602084013567ffffffffffffffff811115613a9e57613a9d613427565b5b613aaa868287016135a2565b925050604084013567ffffffffffffffff811115613acb57613aca613427565b5b613ad7868287016135a2565b9150509250925092565b7f4e487b7100000000000000000000000000000000000000000000000000000000600052602260045260246000fd5b60006002820490506001821680613b2857607f821691505b60208210811415613b3c57613b3b613ae1565b5b50919050565b600081905092915050565b60008190508160005260206000209050919050565b60008154613b6f81613b10565b613b798186613b42565b94506001821660008114613b945760018114613ba557613bd8565b60ff19831686528186019350613bd8565b613bae85613b4d565b60005b83811015613bd057815481890152600182019150602081019050613bb1565b838801955050505b50505092915050565b6000613bed8284613b62565b915081905092915050565b7f46696c6520646f6573206e6f742065786973742e000000000000000000000000600082015250565b6000613c2e6014836136e9565b9150613c3982613bf8565b602082019050919050565b60006020820190508181036000830152613c5d81613c21565b9050919050565b6000602082019050613c7960008301846136cf565b92915050565b7f4e487b7100000000000000000000000000000000000000000000000000000000600052601160045260246000fd5b6000613cb9826133e4565b91506000821415613ccd57613ccc613c7f565b5b600182039050919050565b7f5573657220646f6573206e6f742065786973742e000000000000000000000000600082015250565b6000613d0e6014836136e9565b9150613d1982613cd8565b602082019050919050565b60006020820190508181036000830152613d3d81613d01565b9050919050565b6000604082019050613d5960008301856136cf565b613d6660208301846136cf565b9392505050565b7f46696c6520616c7265616479206578697374732e000000000000000000000000600082015250565b6000613da36014836136e9565b9150613dae82613d6d565b602082019050919050565b60006020820190508181036000830152613dd281613d96565b9050919050565b6000613de4826133e4565b91507fffffffffffffffffffffffffffffffffffffffffffffffffffffffffffffffff821415613e1757613e16613c7f565b5b600182019050919050565b6000613e2d826136de565b613e378185613b42565b9350613e478185602086016136fa565b80840191505092915050565b6000613e5f8284613e22565b915081905092915050565b6000608082019050613e7f60008301876136cf565b613e8c60208301866136cf565b8181036040830152613e9e818561372d565b90508181036060830152613eb2818461372d565b905095945050505050565b7f46696c6520616c7265616479207368617265642e000000000000000000000000600082015250565b6000613ef36014836136e9565b9150613efe82613ebd565b602082019050919050565b60006020820190508181036000830152613f2281613ee6565b9050919050565b7f5573657220616c7265616479206578697374732e000000000000000000000000600082015250565b6000613f5f6014836136e9565b9150613f6a82613f29565b602082019050919050565b60006020820190508181036000830152613f8e81613f52565b9050919050565b6000608082019050613faa60008301876136cf565b613fb760208301866133ee565b8181036040830152613fc9818561372d565b90508181036060830152613fdd818461372d565b905095945050505050565b7f496e646578206973206f7574206f662072616e67652e00000000000000000000600082015250565b600061401e6016836136e9565b915061402982613fe8565b602082019050919050565b6000602082019050818103600083015261404d81614011565b9050919050565b600061405f826133e4565b915061406a836133e4565b92508282101561407d5761407c613c7f565b5b828203905092915050565b7f4e487b7100000000000000000000000000000000000000000000000000000000600052603260045260246000fd5b7f4e487b7100000000000000000000000000000000000000000000000000000000600052603160045260246000fdfea2646970667358221220149ce1af490bd4225b7edfd8e2fd8323beba8e3817632c5e4fc0d36d7191e8ee64736f6c63430008090033",
  "linkReferences": {},
  "deployedLinkReferences": {}
}